{
  "contractName": "Voting",
  "abi": [
    {
      "anonymous": false,
      "inputs": [
        {
          "indexed": false,
          "internalType": "string",
          "name": "_name",
          "type": "string"
        },
        {
          "indexed": false,
          "internalType": "uint256",
          "name": "voteCount",
          "type": "uint256"
        }
      ],
      "name": "ElectionResult",
      "type": "event"
    },
    {
      "constant": true,
      "inputs": [],
      "name": "auctionEnd",
      "outputs": [
        {
          "internalType": "uint256",
          "name": "",
          "type": "uint256"
        }
      ],
      "payable": false,
      "stateMutability": "view",
      "type": "function"
    },
    {
      "constant": true,
      "inputs": [
        {
          "internalType": "uint256",
          "name": "",
          "type": "uint256"
        }
      ],
      "name": "candidates",
      "outputs": [
        {
          "internalType": "string",
          "name": "name",
          "type": "string"
        },
        {
          "internalType": "uint256",
          "name": "voteCount",
          "type": "uint256"
        }
      ],
      "payable": false,
      "stateMutability": "view",
      "type": "function"
    },
    {
      "constant": true,
      "inputs": [],
      "name": "name",
      "outputs": [
        {
          "internalType": "string",
          "name": "",
          "type": "string"
        }
      ],
      "payable": false,
      "stateMutability": "view",
      "type": "function"
    },
    {
      "constant": true,
      "inputs": [],
      "name": "owner",
      "outputs": [
        {
          "internalType": "address",
          "name": "",
          "type": "address"
        }
      ],
      "payable": false,
      "stateMutability": "view",
      "type": "function"
    },
    {
      "constant": true,
      "inputs": [
        {
          "internalType": "address",
          "name": "",
          "type": "address"
        }
      ],
      "name": "voters",
      "outputs": [
        {
          "internalType": "bool",
          "name": "voted",
          "type": "bool"
        },
        {
          "internalType": "uint256",
          "name": "voteIndex",
          "type": "uint256"
        },
        {
          "internalType": "uint256",
          "name": "weight",
          "type": "uint256"
        }
      ],
      "payable": false,
      "stateMutability": "view",
      "type": "function"
    },
    {
      "constant": false,
      "inputs": [
        {
          "internalType": "string",
          "name": "_name",
          "type": "string"
        },
        {
          "internalType": "uint256",
          "name": "durationMinutes",
          "type": "uint256"
        },
        {
          "internalType": "string",
          "name": "candidate1",
          "type": "string"
        },
        {
          "internalType": "string",
          "name": "candidate2",
          "type": "string"
        },
        {
          "internalType": "string",
          "name": "candidate3",
          "type": "string"
        }
      ],
      "name": "election",
      "outputs": [],
      "payable": false,
      "stateMutability": "nonpayable",
      "type": "function"
    },
    {
      "constant": false,
      "inputs": [
        {
          "internalType": "address",
          "name": "voter",
          "type": "address"
        }
      ],
      "name": "authorize",
      "outputs": [],
      "payable": false,
      "stateMutability": "nonpayable",
      "type": "function"
    },
    {
      "constant": false,
      "inputs": [
        {
          "internalType": "uint256",
          "name": "voteIndex",
          "type": "uint256"
        }
      ],
      "name": "vote",
      "outputs": [],
      "payable": false,
      "stateMutability": "nonpayable",
      "type": "function"
    },
    {
      "constant": false,
      "inputs": [],
      "name": "end",
      "outputs": [],
      "payable": false,
      "stateMutability": "nonpayable",
      "type": "function"
    }
  ],
  "bytecode": "0x608060405234801561001057600080fd5b50610e75806100206000396000f3fe608060405234801561001057600080fd5b50600436106100935760003560e01c80635b859852116100665780635b859852146102155780638da5cb5b1461049f578063a3ec138d146104e9578063b6a5d7de14610553578063efbe1c1c1461059757610093565b80630121b93f1461009857806306fdde03146100c65780632a24f46c146101495780633477ee2e14610167575b600080fd5b6100c4600480360360208110156100ae57600080fd5b81019080803590602001909291905050506105a1565b005b6100ce61071c565b6040518080602001828103825283818151815260200191508051906020019080838360005b8381101561010e5780820151818401526020810190506100f3565b50505050905090810190601f16801561013b5780820380516001836020036101000a031916815260200191505b509250505060405180910390f35b6101516107ba565b6040518082815260200191505060405180910390f35b6101936004803603602081101561017d57600080fd5b81019080803590602001909291905050506107c0565b6040518080602001838152602001828103825284818151815260200191508051906020019080838360005b838110156101d95780820151818401526020810190506101be565b50505050905090810190601f1680156102065780820380516001836020036101000a031916815260200191505b50935050505060405180910390f35b61049d600480360360a081101561022b57600080fd5b810190808035906020019064010000000081111561024857600080fd5b82018360208201111561025a57600080fd5b8035906020019184600183028401116401000000008311171561027c57600080fd5b91908080601f016020809104026020016040519081016040528093929190818152602001838380828437600081840152601f19601f82011690508083019250505050505050919291929080359060200190929190803590602001906401000000008111156102e957600080fd5b8201836020820111156102fb57600080fd5b8035906020019184600183028401116401000000008311171561031d57600080fd5b91908080601f016020809104026020016040519081016040528093929190818152602001838380828437600081840152601f19601f8201169050808301925050505050505091929192908035906020019064010000000081111561038057600080fd5b82018360208201111561039257600080fd5b803590602001918460018302840111640100000000831117156103b457600080fd5b91908080601f016020809104026020016040519081016040528093929190818152602001838380828437600081840152601f19601f8201169050808301925050505050505091929192908035906020019064010000000081111561041757600080fd5b82018360208201111561042957600080fd5b8035906020019184600183028401116401000000008311171561044b57600080fd5b91908080601f016020809104026020016040519081016040528093929190818152602001838380828437600081840152601f19601f820116905080830192505050505050509192919290505050610889565b005b6104a7610a3a565b604051808273ffffffffffffffffffffffffffffffffffffffff1673ffffffffffffffffffffffffffffffffffffffff16815260200191505060405180910390f35b61052b600480360360208110156104ff57600080fd5b81019080803573ffffffffffffffffffffffffffffffffffffffff169060200190929190505050610a5f565b6040518084151515158152602001838152602001828152602001935050505060405180910390f35b6105956004803603602081101561056957600080fd5b81019080803573ffffffffffffffffffffffffffffffffffffffff169060200190929190505050610a96565b005b61059f610b94565b005b60045442106105af57600080fd5b600260003373ffffffffffffffffffffffffffffffffffffffff1673ffffffffffffffffffffffffffffffffffffffff16815260200190815260200160002060000160009054906101000a900460ff161561060957600080fd5b6001600260003373ffffffffffffffffffffffffffffffffffffffff1673ffffffffffffffffffffffffffffffffffffffff16815260200190815260200160002060000160006101000a81548160ff02191690831515021790555080600260003373ffffffffffffffffffffffffffffffffffffffff1673ffffffffffffffffffffffffffffffffffffffff16815260200190815260200160002060010181905550600260003373ffffffffffffffffffffffffffffffffffffffff1673ffffffffffffffffffffffffffffffffffffffff16815260200190815260200160002060020154600382815481106106fb57fe5b90600052602060002090600202016001016000828254019250508190555050565b60018054600181600116156101000203166002900480601f0160208091040260200160405190810160405280929190818152602001828054600181600116156101000203166002900480156107b25780601f10610787576101008083540402835291602001916107b2565b820191906000526020600020905b81548152906001019060200180831161079557829003601f168201915b505050505081565b60045481565b600381815481106107cd57fe5b9060005260206000209060020201600091509050806000018054600181600116156101000203166002900480601f0160208091040260200160405190810160405280929190818152602001828054600181600116156101000203166002900480156108795780601f1061084e57610100808354040283529160200191610879565b820191906000526020600020905b81548152906001019060200180831161085c57829003601f168201915b5050505050908060010154905082565b336000806101000a81548173ffffffffffffffffffffffffffffffffffffffff021916908373ffffffffffffffffffffffffffffffffffffffff16021790555084600190805190602001906108df929190610d1b565b50603c8402420160048190555060036040518060400160405280858152602001600081525090806001815401808255809150509060018203906000526020600020906002020160009091929091909150600082015181600001908051906020019061094b929190610d9b565b50602082015181600101555050506003604051806040016040528084815260200160008152509080600181540180825580915050906001820390600052602060002090600202016000909192909190915060008201518160000190805190602001906109b8929190610d9b565b5060208201518160010155505050600360405180604001604052808381526020016000815250908060018154018082558091505090600182039060005260206000209060020201600090919290919091506000820151816000019080519060200190610a25929190610d9b565b50602082015181600101555050505050505050565b6000809054906101000a900473ffffffffffffffffffffffffffffffffffffffff1681565b60026020528060005260406000206000915090508060000160009054906101000a900460ff16908060010154908060020154905083565b6000809054906101000a900473ffffffffffffffffffffffffffffffffffffffff1673ffffffffffffffffffffffffffffffffffffffff163373ffffffffffffffffffffffffffffffffffffffff1614610aef57600080fd5b600260008273ffffffffffffffffffffffffffffffffffffffff1673ffffffffffffffffffffffffffffffffffffffff16815260200190815260200160002060000160009054906101000a900460ff1615610b4957600080fd5b6001600260008373ffffffffffffffffffffffffffffffffffffffff1673ffffffffffffffffffffffffffffffffffffffff1681526020019081526020016000206002018190555050565b6000809054906101000a900473ffffffffffffffffffffffffffffffffffffffff1673ffffffffffffffffffffffffffffffffffffffff163373ffffffffffffffffffffffffffffffffffffffff1614610bed57600080fd5b600454421015610bfc57600080fd5b60008090505b600380549050811015610d18577f156b5ffaa1a96772b4d324b6a0492ba5c51abe8a2818c38a0d409faddb63578c60038281548110610c3d57fe5b906000526020600020906002020160000160038381548110610c5b57fe5b9060005260206000209060020201600101546040518080602001838152602001828103825284818154600181600116156101000203166002900481526020019150805460018160011615610100020316600290048015610cfc5780601f10610cd157610100808354040283529160200191610cfc565b820191906000526020600020905b815481529060010190602001808311610cdf57829003601f168201915b5050935050505060405180910390a18080600101915050610c02565b50565b828054600181600116156101000203166002900490600052602060002090601f016020900481019282601f10610d5c57805160ff1916838001178555610d8a565b82800160010185558215610d8a579182015b82811115610d89578251825591602001919060010190610d6e565b5b509050610d979190610e1b565b5090565b828054600181600116156101000203166002900490600052602060002090601f016020900481019282601f10610ddc57805160ff1916838001178555610e0a565b82800160010185558215610e0a579182015b82811115610e09578251825591602001919060010190610dee565b5b509050610e179190610e1b565b5090565b610e3d91905b80821115610e39576000816000905550600101610e21565b5090565b9056fea265627a7a723158201a1c2d156d193cc48d6c592bc77cfa5e972b2133ef3361cbf0249d24d283862964736f6c63430005100032",
  "source": "pragma solidity 0.5.16;\r\n\r\ncontract Voting {\r\n// the struct allows us to group otherdata types together\r\n//struct for candidate\r\n    struct Candidate {\r\n        string name;\r\n        uint voteCount;\r\n    }\r\n// struct for voter to store if the voter has voted before and they have voted for\r\n    struct Voter {\r\n        bool voted;\r\n        uint voteIndex;\r\n        uint weight; // to specify the weight ofa  vote\r\n\r\n    }\r\n    //keeping track of the owner of  the contract\r\n    address public owner;\r\n    string public name;\r\n    //keep amapping to store voting information as well as the dynamically-sized array of candidates \r\n    //that will be initialized on constructor\r\n    mapping(address => Voter) public voters;\r\n    Candidate[] public candidates;\r\n    //using timestamp for when election ends\r\n    uint public auctionEnd;\r\n    \r\n    event ElectionResult(string _name, uint voteCount);\r\n    \r\n    //initialize list of candidates in the  constructor\r\n    function election(string memory _name, uint durationMinutes, string memory candidate1, string memory candidate2, string memory candidate3) public {\r\n        owner = msg.sender;\r\n        name = _name;\r\n        auctionEnd = now + (durationMinutes * 1 minutes);\r\n        \r\n    \r\n        candidates.push(Candidate(candidate1, 0)); // defining candidate objects\r\n        candidates.push(Candidate(candidate2, 0));\r\n        candidates.push(Candidate(candidate3, 0));\r\n    }\r\n    // a function that allows the owner of the contract to give voting rights to addresses\r\n    function authorize(address voter) public {\r\n        require(msg.sender == owner);\r\n        require(!voters[voter].voted);\r\n\r\n        voters[voter].weight = 1; // it will only count authoriized vote as 1\r\n    }\r\n    // a function that will allowany authorized voterto csubmit their vote\r\n    function vote(uint voteIndex) public {\r\n        require(now < auctionEnd); //check that time to vote hasn't ended\r\n        require(!voters[msg.sender].voted);\r\n\r\n        voters[msg.sender].voted = true; // marked as vote\r\n        voters[msg.sender].voteIndex = voteIndex; //to increase the vote count for the specified candidate\r\n\r\n        candidates[voteIndex].voteCount += voters[msg.sender].weight; //it allows anyone to vote but the vote won't count\r\n    }\r\n    function end() public {\r\n        require(msg.sender == owner);\r\n        require(now >= auctionEnd); //owner cannot end election before time\r\n\r\n        for(uint i=0; i < candidates.length; i++) {\r\n           emit ElectionResult(candidates[i].name, candidates[i].voteCount);\r\n        }\r\n\r\n    }\r\n}",
  "sourcePath": "C:\\Users\\FAVOUR\\Downloads\\cmder\\vote-contract\\contracts\\vote.sol",
  "compiler": {
    "name": "solc",
    "version": "0.5.16+commit.9c3226ce.Emscripten.clang"
  },
  "schemaVersion": "3.4.3",
  "updatedAt": "2021-09-16T00:25:07.922Z",
  "devdoc": {
    "methods": {}
  },
  "userdoc": {
    "methods": {}
  }
}